{
  "contractName": "DIDRegistry",
  "abi": [
    {
      "anonymous": false,
      "inputs": [
        {
          "indexed": false,
          "internalType": "string",
          "name": "credentialId",
          "type": "string"
        }
      ],
      "name": "CredentialRevoked",
      "type": "event"
    },
    {
      "anonymous": false,
      "inputs": [
        {
          "indexed": false,
          "internalType": "string",
          "name": "did",
          "type": "string"
        },
        {
          "indexed": false,
          "internalType": "address",
          "name": "owner",
          "type": "address"
        },
        {
          "indexed": false,
          "internalType": "string",
          "name": "ipfsCid",
          "type": "string"
        }
      ],
      "name": "DIDRegistered",
      "type": "event"
    },
    {
      "anonymous": false,
      "inputs": [
        {
          "indexed": false,
          "internalType": "string",
          "name": "did",
          "type": "string"
        },
        {
          "indexed": false,
          "internalType": "address",
          "name": "owner",
          "type": "address"
        },
        {
          "indexed": false,
          "internalType": "string",
          "name": "ipfsCid",
          "type": "string"
        }
      ],
      "name": "DIDUpdated",
      "type": "event"
    },
    {
      "inputs": [
        {
          "internalType": "string",
          "name": "",
          "type": "string"
        }
      ],
      "name": "revoked",
      "outputs": [
        {
          "internalType": "bool",
          "name": "",
          "type": "bool"
        }
      ],
      "stateMutability": "view",
      "type": "function",
      "constant": true
    },
    {
      "inputs": [
        {
          "internalType": "string",
          "name": "did",
          "type": "string"
        },
        {
          "internalType": "string",
          "name": "ipfsCid",
          "type": "string"
        },
        {
          "internalType": "string",
          "name": "controller",
          "type": "string"
        }
      ],
      "name": "registerDID",
      "outputs": [],
      "stateMutability": "nonpayable",
      "type": "function"
    },
    {
      "inputs": [
        {
          "internalType": "string",
          "name": "did",
          "type": "string"
        },
        {
          "internalType": "string",
          "name": "ipfsCid",
          "type": "string"
        },
        {
          "internalType": "string",
          "name": "controller",
          "type": "string"
        }
      ],
      "name": "updateDID",
      "outputs": [],
      "stateMutability": "nonpayable",
      "type": "function"
    },
    {
      "inputs": [
        {
          "internalType": "string",
          "name": "did",
          "type": "string"
        }
      ],
      "name": "getDID",
      "outputs": [
        {
          "internalType": "address",
          "name": "owner",
          "type": "address"
        },
        {
          "internalType": "string",
          "name": "ipfsCid",
          "type": "string"
        },
        {
          "internalType": "string",
          "name": "controller",
          "type": "string"
        },
        {
          "internalType": "bool",
          "name": "exists",
          "type": "bool"
        }
      ],
      "stateMutability": "view",
      "type": "function",
      "constant": true
    },
    {
      "inputs": [
        {
          "internalType": "string",
          "name": "credentialId",
          "type": "string"
        }
      ],
      "name": "revokeCredential",
      "outputs": [],
      "stateMutability": "nonpayable",
      "type": "function"
    },
    {
      "inputs": [
        {
          "internalType": "string",
          "name": "credentialId",
          "type": "string"
        }
      ],
      "name": "isRevoked",
      "outputs": [
        {
          "internalType": "bool",
          "name": "",
          "type": "bool"
        }
      ],
      "stateMutability": "view",
      "type": "function",
      "constant": true
    }
  ],
  "bytecode": "0x608060405234801561001057600080fd5b506112b9806100206000396000f3fe608060405234801561001057600080fd5b50600436106100625760003560e01c806335168a001461006757806352d5d3c3146100975780635e17004c146100b35780635e9a2d28146100e3578063caa0ce9c146100ff578063e07838981461011b575b600080fd5b610081600480360381019061007c919061087d565b61014e565b60405161008e91906108e5565b60405180910390f35b6100b160048036038101906100ac9190610900565b610186565b005b6100cd60048036038101906100c89190610af5565b610396565b6040516100da91906108e5565b60405180910390f35b6100fd60048036038101906100f8919061087d565b6103cc565b005b61011960048036038101906101149190610900565b610441565b005b6101356004803603810190610130919061087d565b610671565b6040516101459493929190610bfe565b60405180910390f35b600060018383604051610162929190610c81565b908152602001604051809103902060009054906101000a900460ff16905092915050565b85858080601f016020809104026020016040519081016040528093929190818152602001838380828437600081840152601f19601f820116905080830192505050505050506000816040516101db9190610ccb565b908152602001604051809103902060030160009054906101000a900460ff16610239576040517f08c379a000000000000000000000000000000000000000000000000000000000815260040161023090610d2e565b60405180910390fd5b3373ffffffffffffffffffffffffffffffffffffffff166000826040516102609190610ccb565b908152602001604051809103902060000160009054906101000a900473ffffffffffffffffffffffffffffffffffffffff1673ffffffffffffffffffffffffffffffffffffffff16146102e8576040517f08c379a00000000000000000000000000000000000000000000000000000000081526004016102df90610d9a565b60405180910390fd5b8484600089896040516102fc929190610c81565b9081526020016040518091039020600201918261031a929190610fdb565b5082826000898960405161032f929190610c81565b9081526020016040518091039020600101918261034d929190610fdb565b507f796bd7276d8f62254ed81fc83e530957e694393509349dc4224f59f1885072a687873388886040516103859594939291906110d8565b60405180910390a150505050505050565b6001818051602081018201805184825260208301602085012081835280955050505050506000915054906101000a900460ff1681565b60018083836040516103df929190610c81565b908152602001604051809103902060006101000a81548160ff0219169083151502179055507f19d981dae71c0e172d789c8bef41062792bc14fa2e555bba0bae3c104d2b2a418282604051610435929190611121565b60405180910390a15050565b60008686604051610453929190610c81565b908152602001604051809103902060030160009054906101000a900460ff16156104b2576040517f08c379a00000000000000000000000000000000000000000000000000000000081526004016104a990611191565b60405180910390fd5b60405180608001604052803373ffffffffffffffffffffffffffffffffffffffff16815260200183838080601f016020809104026020016040519081016040528093929190818152602001838380828437600081840152601f19601f82011690508083019250505050505050815260200185858080601f016020809104026020016040519081016040528093929190818152602001838380828437600081840152601f19601f8201169050808301925050505050505081526020016001151581525060008787604051610586929190610c81565b908152602001604051809103902060008201518160000160006101000a81548173ffffffffffffffffffffffffffffffffffffffff021916908373ffffffffffffffffffffffffffffffffffffffff16021790555060208201518160010190816105f091906111b1565b50604082015181600201908161060691906111b1565b5060608201518160030160006101000a81548160ff0219169083151502179055509050507fa20f9ec2428f3daed63d78d8587459f4a215c4815344819e622fc9d640c3d8c986863387876040516106619594939291906110d8565b60405180910390a1505050505050565b60006060806000806000878760405161068b929190610c81565b908152602001604051809103902090508060000160009054906101000a900473ffffffffffffffffffffffffffffffffffffffff1681600201826001018360030160009054906101000a900460ff168280546106e690610df4565b80601f016020809104026020016040519081016040528092919081815260200182805461071290610df4565b801561075f5780601f106107345761010080835404028352916020019161075f565b820191906000526020600020905b81548152906001019060200180831161074257829003601f168201915b5050505050925081805461077290610df4565b80601f016020809104026020016040519081016040528092919081815260200182805461079e90610df4565b80156107eb5780601f106107c0576101008083540402835291602001916107eb565b820191906000526020600020905b8154815290600101906020018083116107ce57829003601f168201915b5050505050915094509450945094505092959194509250565b6000604051905090565b600080fd5b600080fd5b600080fd5b600080fd5b600080fd5b60008083601f84011261083d5761083c610818565b5b8235905067ffffffffffffffff81111561085a5761085961081d565b5b60208301915083600182028301111561087657610875610822565b5b9250929050565b600080602083850312156108945761089361080e565b5b600083013567ffffffffffffffff8111156108b2576108b1610813565b5b6108be85828601610827565b92509250509250929050565b60008115159050919050565b6108df816108ca565b82525050565b60006020820190506108fa60008301846108d6565b92915050565b6000806000806000806060878903121561091d5761091c61080e565b5b600087013567ffffffffffffffff81111561093b5761093a610813565b5b61094789828a01610827565b9650965050602087013567ffffffffffffffff81111561096a57610969610813565b5b61097689828a01610827565b9450945050604087013567ffffffffffffffff81111561099957610998610813565b5b6109a589828a01610827565b92509250509295509295509295565b600080fd5b6000601f19601f8301169050919050565b7f4e487b7100000000000000000000000000000000000000000000000000000000600052604160045260246000fd5b610a02826109b9565b810181811067ffffffffffffffff82111715610a2157610a206109ca565b5b80604052505050565b6000610a34610804565b9050610a4082826109f9565b919050565b600067ffffffffffffffff821115610a6057610a5f6109ca565b5b610a69826109b9565b9050602081019050919050565b82818337600083830152505050565b6000610a98610a9384610a45565b610a2a565b905082815260208101848484011115610ab457610ab36109b4565b5b610abf848285610a76565b509392505050565b600082601f830112610adc57610adb610818565b5b8135610aec848260208601610a85565b91505092915050565b600060208284031215610b0b57610b0a61080e565b5b600082013567ffffffffffffffff811115610b2957610b28610813565b5b610b3584828501610ac7565b91505092915050565b600073ffffffffffffffffffffffffffffffffffffffff82169050919050565b6000610b6982610b3e565b9050919050565b610b7981610b5e565b82525050565b600081519050919050565b600082825260208201905092915050565b60005b83811015610bb9578082015181840152602081019050610b9e565b60008484015250505050565b6000610bd082610b7f565b610bda8185610b8a565b9350610bea818560208601610b9b565b610bf3816109b9565b840191505092915050565b6000608082019050610c136000830187610b70565b8181036020830152610c258186610bc5565b90508181036040830152610c398185610bc5565b9050610c4860608301846108d6565b95945050505050565b600081905092915050565b6000610c688385610c51565b9350610c75838584610a76565b82840190509392505050565b6000610c8e828486610c5c565b91508190509392505050565b6000610ca582610b7f565b610caf8185610c51565b9350610cbf818560208601610b9b565b80840191505092915050565b6000610cd78284610c9a565b915081905092915050565b7f444944206e6f7420726567697374657265640000000000000000000000000000600082015250565b6000610d18601283610b8a565b9150610d2382610ce2565b602082019050919050565b60006020820190508181036000830152610d4781610d0b565b9050919050565b7f4f6e6c7920444944206f776e6572000000000000000000000000000000000000600082015250565b6000610d84600e83610b8a565b9150610d8f82610d4e565b602082019050919050565b60006020820190508181036000830152610db381610d77565b9050919050565b600082905092915050565b7f4e487b7100000000000000000000000000000000000000000000000000000000600052602260045260246000fd5b60006002820490506001821680610e0c57607f821691505b602082108103610e1f57610e1e610dc5565b5b50919050565b60008190508160005260206000209050919050565b60006020601f8301049050919050565b600082821b905092915050565b600060088302610e877fffffffffffffffffffffffffffffffffffffffffffffffffffffffffffffffff82610e4a565b610e918683610e4a565b95508019841693508086168417925050509392505050565b6000819050919050565b6000819050919050565b6000610ed8610ed3610ece84610ea9565b610eb3565b610ea9565b9050919050565b6000819050919050565b610ef283610ebd565b610f06610efe82610edf565b848454610e57565b825550505050565b600090565b610f1b610f0e565b610f26818484610ee9565b505050565b5b81811015610f4a57610f3f600082610f13565b600181019050610f2c565b5050565b601f821115610f8f57610f6081610e25565b610f6984610e3a565b81016020851015610f78578190505b610f8c610f8485610e3a565b830182610f2b565b50505b505050565b600082821c905092915050565b6000610fb260001984600802610f94565b1980831691505092915050565b6000610fcb8383610fa1565b9150826002028217905092915050565b610fe58383610dba565b67ffffffffffffffff811115610ffe57610ffd6109ca565b5b6110088254610df4565b611013828285610f4e565b6000601f8311600181146110425760008415611030578287013590505b61103a8582610fbf565b8655506110a2565b601f19841661105086610e25565b60005b8281101561107857848901358255600182019150602085019450602081019050611053565b868310156110955784890135611091601f891682610fa1565b8355505b6001600288020188555050505b50505050505050565b60006110b78385610b8a565b93506110c4838584610a76565b6110cd836109b9565b840190509392505050565b600060608201905081810360008301526110f38187896110ab565b90506111026020830186610b70565b81810360408301526111158184866110ab565b90509695505050505050565b6000602082019050818103600083015261113c8184866110ab565b90509392505050565b7f44494420616c7265616479207265676973746572656400000000000000000000600082015250565b600061117b601683610b8a565b915061118682611145565b602082019050919050565b600060208201905081810360008301526111aa8161116e565b9050919050565b6111ba82610b7f565b67ffffffffffffffff8111156111d3576111d26109ca565b5b6111dd8254610df4565b6111e8828285610f4e565b600060209050601f83116001811461121b5760008415611209578287015190505b6112138582610fbf565b86555061127b565b601f19841661122986610e25565b60005b828110156112515784890151825560018201915060208501945060208101905061122c565b8683101561126e578489015161126a601f891682610fa1565b8355505b6001600288020188555050505b50505050505056fea26469706673582212202c2685606117493ad3885c0bf226f4986ef8db9df7464801ac54e39251390e1c64736f6c63430008130033",
  "immutableReferences": {},
  "source": "// SPDX-License-Identifier: MIT\npragma solidity ^0.8.19;\n\n/// @title Simple DID registry with anchors and revocation\n/// @notice Minimal DID registry for MVP. Each DID owner is an Ethereum address.\ncontract DIDRegistry {\n    struct DIDRecord {\n        address owner;\n        string controller; // optional controller DID or metadata\n        string ipfsCid;    // latest IPFS CID anchor\n        bool exists;\n    }\n\n    mapping(string => DIDRecord) private records; // mapping DID string -> record\n    mapping(string => bool) public revoked;       // mapping credentialId -> revoked\n\n    event DIDRegistered(string did, address owner, string ipfsCid);\n    event DIDUpdated(string did, address owner, string ipfsCid);\n    event CredentialRevoked(string credentialId);\n\n    modifier onlyOwner(string memory did) {\n        require(records[did].exists, \"DID not registered\");\n        require(records[did].owner == msg.sender, \"Only DID owner\");\n        _;\n    }\n\n    /// Register a DID. DID is application-level (e.g. \"did:ethr:0xabc...\") but stored as string.\n    function registerDID(string calldata did, string calldata ipfsCid, string calldata controller) external {\n        require(!records[did].exists, \"DID already registered\");\n        records[did] = DIDRecord({\n            owner: msg.sender,\n            controller: controller,\n            ipfsCid: ipfsCid,\n            exists: true\n        });\n        emit DIDRegistered(did, msg.sender, ipfsCid);\n    }\n\n    /// Update anchor or controller  only owner\n    function updateDID(string calldata did, string calldata ipfsCid, string calldata controller) external onlyOwner(did) {\n        records[did].ipfsCid = ipfsCid;\n        records[did].controller = controller;\n        emit DIDUpdated(did, msg.sender, ipfsCid);\n    }\n\n    /// Read record\n    function getDID(string calldata did) external view returns (address owner, string memory ipfsCid, string memory controller, bool exists) {\n        DIDRecord storage r = records[did];\n        return (r.owner, r.ipfsCid, r.controller, r.exists);\n    }\n\n    /// Revoke a credential (credentialId should be unique ID string)\n    function revokeCredential(string calldata credentialId) external {\n        // For MVP: allow anyone to request revoke but only the credential issuer would call this (off-chain policy).\n        revoked[credentialId] = true;\n        emit CredentialRevoked(credentialId);\n    }\n\n    function isRevoked(string calldata credentialId) external view returns (bool) {\n        return revoked[credentialId];\n    }\n}\n",
  "sourcePath": "C:\\Users\\Goutham\\OneDrive\\Desktop\\credenx\\credenx\\contracts\\DIDRegistry.sol",
  "compiler": {
    "name": "solc",
    "version": "0.8.19+commit.7dd6d404.Emscripten.clang"
  },
  "schemaVersion": "3.4.16",
  "updatedAt": "2025-11-13T22:39:22.326Z",
  "networkType": "ethereum",
  "devdoc": {
    "kind": "dev",
    "methods": {},
    "title": "Simple DID registry with anchors and revocation",
    "version": 1
  },
  "userdoc": {
    "kind": "user",
    "methods": {
      "getDID(string)": {
        "notice": "Read record"
      },
      "registerDID(string,string,string)": {
        "notice": "Register a DID. DID is application-level (e.g. \"did:ethr:0xabc...\") but stored as string."
      },
      "revokeCredential(string)": {
        "notice": "Revoke a credential (credentialId should be unique ID string)"
      },
      "updateDID(string,string,string)": {
        "notice": "Update anchor or controller  only owner"
      }
    },
    "notice": "Minimal DID registry for MVP. Each DID owner is an Ethereum address.",
    "version": 1
  }
}